:100000000C942A000C9447000C9447000C94470071
:100010000C9447000C9447000C9447000C94470044
:100020000C9447000C9447000C9447000C94470034
:100030000C9447000C9447000C9447000C94470024
:100040000C9447000C9447000C9447000C94470014
:100050000C94470011241FBECFE5D8E0DEBFCDBF12
:1000600010E0A0E6B0E0E8E6F2E002C005900D92F4
:10007000A036B107D9F710E0A0E6B0E001C01D92AC
:10008000A036B107E1F70E9454000C9432010C94A1
:100090000000009741F0E9EFF0E03197F1F700C080
:1000A00000000197C1F708958FEF8ABB8BBB87BB18
:1000B00088BBFFCF90BD89B988E18AB98EE880BD41
:1000C0000895579A08955D9BFECF8CB908955F9B64
:1000D000FECF8CB108955F9B02C08CB1089580E083
:1000E0000895CF93DF93EC018881882331F0219626
:1000F0000E94630089918823D9F7DF91CF910895F9
:100100000F931F93CF93DF93DC01CB018A309105CE
:10011000A105B10570F0BC01CD012AE030E040E05E
:1001200050E00E94FC00D62FCA01B9010E94800055
:100130008D2F805D0E946300DF91CF911F910F9101
:100140000895EF92FF920F931F93CF93DF93EC01EB
:10015000009751F100E010E0EE24FF246894E1F8EC
:10016000CE01B7010E94E9009C01B901882777FD03
:100170008095982F0E9480000F5F1F4FCE01DD23D6
:100180000CF40196EC01D595C795209749F70830F6
:100190001105C1F0C8E0D0E0C01BD10B1C161D0634
:1001A0008CF400E010E004C0C8E0D0E000E010E013
:1001B00060E070E0CB010E9480000F5F1F4F0C17C2
:1001C0001D07B1F7DF91CF911F910F91FF90EF9035
:1001D000089597FB092E07260AD077FD04D02ED06C
:1001E00006D000201AF4709561957F4F0895F6F7B8
:1001F000909581959F4F0895A1E21A2EAA1BBB1BD3
:10020000FD010DC0AA1FBB1FEE1FFF1FA217B307E2
:10021000E407F50720F0A21BB30BE40BF50B661FF8
:10022000771F881F991F1A9469F7609570958095BC
:1002300090959B01AC01BD01CF010895AA1BBB1B8A
:1002400051E107C0AA1FBB1FA617B70710F0A61BD6
:10025000B70B881F991F5A95A9F780959095BC01F7
:08026000CD010895F894FFCFD1
:00000001FF
